:020000040800F2
:10000000E8050020A1010008B9250008871F0008A5
:10001000B5250008D10200083529000800000000BD
:100020000000000000000000000000006927000838
:100030006304000800000000BB2500086B270008CF
:10004000BB010008BB010008BB010008BB010008A0
:10005000BB010008BD25000865040008BB010008BD
:10006000BB010008BB01000879040008BB010008BF
:10007000BB010008BB010008BB010008BB01000870
:1000800049030008BB010008BB010008BB010008D0
:10009000BB010008BB010008BB010008BB01000850
:1000A000BB010008BB010008BB010008BB01000840
:1000B000BB010008BB010008BB010008BB01000830
:1000C000BB010008BB010008BB010008BB01000820
:1000D000BB010008BB010008BB010008BB01000810
:1000E000BB010008BB010008BB010008BB01000800
:1000F000BB010008BB010008BB010008BB010008F0
:10010000BB010008BB010008BB010008BB010008DF
:10011000BB010008BB01000845280008BB0100081E
:10012000BB010008BB010008BB010008BB010008BF
:10013000BB010008BB010008BB010008BB010008AF
:10014000BB010008BB010008BB010008BB0100089F
:10015000BB010008BB010008BB010008BB0100088F
:10016000BB010008BB010008BB010008BB0100087F
:10017000BB010008BB010008BB0100080000000033
:10018000BB010008BB010008DFF810D000F08EF8BA
:1001900000480047852A0008AFF30080E8050020EA
:1001A0000648804706480047FEE7FEE7FEE7FEE711
:1001B000FEE7FEE7FEE7FEE7FEE7FEE72928000888
:1001C000890100082DE9F05F0546002092469B4614
:1001D00088460646814640241BE02846414647465D
:1001E000224600F053F853465A46C01A914110D3A4
:1001F00011461846224600F03AF82D1A67EB01081E
:100200004F4622460120002100F031F817EB00098B
:100210004E41201EA4F10104DFDC484631462A4647
:100220004346BDE8F09F40EA01039B0703D009E085
:1002300008C9121F08C0042AFAD203E011F8013BD2
:1002400000F8013B521EF9D27047D2B201E000F82B
:10025000012B491EFBD270470022F6E710B513466A
:100260000A4604461946FFF7F0FF204610BD202A33
:1002700004DB203A00FA02F1002070479140C2F1FD
:10028000200320FA03F3194390407047202A04DB2F
:10029000203A21FA02F00021704721FA02F3D040FF
:1002A000C2F120029140084319467047064C074DA1
:1002B00006E0E06840F0010394E807009847103436
:1002C000AC42F6D3FFF764FFE02B0008002C0008D7
:1002D00000BFFEE770B50446A56B284600F008F99C
:1002E0000120287170BD70B50446A56B284600F04A
:1002F000CEF80120287170BD70B50546AC6B206941
:1003000040F004002061204600F0F5F80120207143
:1003100070BD70B50546AC6B206940F004002061EB
:10032000204600F0B7F80120207170BD70B504467A
:10033000A56B284600F0DDF870BD70B50446A56BCE
:10034000284600F0A5F870BD10B5024800F01CFA70
:1003500010BD0000A80000200146087810381823BE
:10036000B0FBF3F20848805CC865032A05D9086829
:100370006FF30900001D886503E008686FF309004A
:100380008865886D70470000C02B0008014600207A
:100390008A6A8B69CBB932B1012A0DD0022A03D007
:1003A000032A10D10EE000BFCB6A03F08073B3F1D3
:1003B000807F00D1012007E0CB6AB3F1C07F00D17C
:1003C000012001E000E000BF34E08B69B3F5005F7D
:1003D0001AD132B1012A07D0022A03D0032A11D13F
:1003E0000AE000BF01200EE0CB6A03F08073B3F196
:1003F000807F00D1012006E0CB6AB3F1C07F00D13D
:10040000012000E000BF15E032B1012A05D0022A28
:1004100004D0032A0CD103E000BF00BF012008E094
:10042000CB6A03F08073B3F1807F00D1012000E03C
:1004300000BF00BF704730B50468246824F48024EE
:1004400005682C60046863608468402C04D10468EB
:10045000A2600468E16003E00468A1600468E260EF
:1004600030BD704710B501200249087000F06CFBE8
:1004700010BD00002200002010B5002002490870C5
:10048000102000F061FB10BD220000207047704773
:1004900070477047704770B503460024002500BFC1
:1004A0005879012801D1022070BD0120587100BF88
:1004B000022018711868046840F6FE70904084436A
:1004C000D1E9000640EA060505FA02F0044318687F
:1004D000046018680668C02090408643186806606B
:1004E0000120187100BF0020587100BF00BFDBE77A
:1004F000704770477047704710B504462068406BDE
:1005000000F40050B0F5005F12D104202071206982
:1005100040F0010020614FF40050216848632068DA
:10052000006820F48050216808602046FFF7E2FF51
:100530002068406B00F00050B0F1005F12D1042041
:100540002071206940F0020020614FF000502168C6
:1005500048632068006820F08050216808602046C9
:10056000FFF797FF10BD10B504460CB9012010BD70
:10057000207920B900206071204600F009F802209F
:10058000207100202061012020710020EFE7000091
:1005900010B586B00446142101A8FFF75DFE2D4971
:1005A0002068884254D100BF002000902A4800688B
:1005B00040F00050284908600846006800F00050EC
:1005C000009000BF00BF00BF0020009022481038FC
:1005D000006840F0010020491039086008460068B2
:1005E00000F00100009000BF00BF10200190032028
:1005F00002900020039001A9184800F0B3FA1848AF
:10060000184908604FF060604860402115488160DB
:100610000021C1604FF4806101614900416189009E
:1006200081614911C16100210162416200F0CCF990
:1006300008B1FFF72BFF00BF0A48A060846300BF2A
:1006400000221146362000F033FC362000F020FC5A
:1006500006B010BD00740040403802400000024067
:1006600088600240A80000202DE9F04704460D46AE
:1006700016469846089F4FF0000900BF6079012890
:1006800002D10220BDE8F0870120607100BF022086
:10069000207115BB3648A168C8633648A168086454
:1006A0003548A168C8642068006840F4805021681B
:1006B000086027B1042F06D0082F0CD107E020686E
:1006C00000F1080908E0206800F10C0904E0206846
:1006D00000F1100900E000BF22E02848E168C8638B
:1006E0002748E16808642748E168C8642068006812
:1006F00040F080502168086027B1042F06D0082FF1
:100700000CD107E0206800F1140908E0206800F12E
:10071000180904E0206800F11C0900E000BF00BFD8
:1007200065B92068006840F40050216808604346BD
:100730004A463146A06800F0BDF90BE02068006829
:1007400040F000502168086043464A463146E06860
:1007500000F0B0F9206800680121A9400843216831
:10076000086000BF0020607100BF00BF8AE7000082
:10077000D50200082D030008F9020008E70200086E
:100780003B03000813030008F8B50446002000905E
:100790008C4800684FF41651B0FBF1F7A56D2E6838
:1007A00094F85C1008208840304098B120680068B8
:1007B00000F0040070B12068006820F00400216897
:1007C000086094F85C1008208840A860606D40F0D4
:1007D0000100606594F85C1001208840304068B1E9
:1007E0002068406900F0800040B194F85C1001205E
:1007F0008840A860606D40F00200606594F85C106D
:1008000004208840304068B12068006800F0020091
:1008100040B194F85C1004208840A860606D40F0FE
:100820000400606594F85C1010208840304078B374
:100830002068006800F0080050B394F85C101020A5
:100840008840A8602068006800F4802080B120689B
:10085000006800F4002028B9206CC8B12046216C43
:10086000884715E0A06C98B12046A16C88470FE03E
:100870002068006800F4807028B92068006820F0C3
:10088000080021680860206C10B12046216C884760
:1008900094F85C10202088403040002865D0206803
:1008A000006800F0100000285FD094F85C10202051
:1008B0008840A86094F83500052828D12068006891
:1008C00020F01600216808602068406920F0800050
:1008D00021684861206C08B9A06C28B120680068C4
:1008E00020F008002168086094F85C103F208840E0
:1008F000A86000BF002084F8340000BF012084F805
:100900003500206D10B12046216D8847F8BD206864
:10091000006800F4802080B12068006800F40020A6
:1009200028B9606C10B12046616C88471DE0E06B0F
:10093000D8B12046E16B884717E02068006800F4D2
:10094000807068B92068006820F010002168086095
:1009500000BF002084F8340000BF012084F8350077
:10096000E06B10B12046E16B8847606D38B3606D75
:1009700000F00100F0B1052084F83500206800681F
:1009800020F001002168086000BF0098401C009022
:10099000B84200D905E02068006800F00100002896
:1009A000F3D100BF00BF002084F8340000BF012055
:1009B00084F83500E06C10B12046E16C884700BF38
:1009C000A4E70000380000202DE9F041044600258E
:1009D00000F0D8F9074614B90120BDE8F081606A3B
:1009E00000B100BF00BF002084F8340000BF022027
:1009F00084F835002068006820F001002168086054
:100A00000AE000F0BFF9C01B052805D92020606569
:100A1000032084F83500E0E72068006800F001005A
:100A20000028EED12068056821480540D4E901017D
:100A30000843E16808432169084361690843A169E3
:100A40000843E1690843216A08430543606A0428B2
:100A500003D1D4E90B0108430543206805602068F1
:100A6000456925F00705606A0543606A04280DD1D1
:100A7000A06A0543E06A48B12046FFF787FC28B129
:100A800040206065012084F83500A6E720684561B4
:100A90002046FFF761FC064694F85C103F20884032
:100AA000B06000206065012084F83500002094E7E4
:100AB0003F8010F02DE9F04704460D4616461F46CC
:100AC0004FF00008D4F8589000BF94F83400012883
:100AD00002D10220BDE8F087012084F8340000BF75
:100AE00094F83500012825D1022084F83500002033
:100AF00060653B46324629462046FFF79CFC94F849
:100B00005C103F208840C9F808002068006840F069
:100B1000160021680860206C28B12068006840F049
:100B20000800216808602068006840F00100216822
:100B3000086006E000BF002084F8340000BF4FF0DA
:100B400002084046C6E7704710B5044604480068EE
:100B5000204020B1024804602046FFF7F4FF10BD9A
:100B6000143C0140F8B502460B4600250024002045
:100B70000021DCE0012606FA01F51E6806EA0504FC
:100B8000AC4273D15E68012E08D05E68022E05D09B
:100B90005E68112E02D05E68122E13D190684F004D
:100BA0000326BE40B0434F00DE68BE403043906035
:100BB000506801268E40B0431E79C6F300168E4061
:100BC00030435060D0684F000326BE40B0434F0012
:100BD0009E68BE403043D0605E68022E02D05E68E0
:100BE000122E13D1CF0802F1200656F827004E0727
:100BF000F70E0F26BE40B0434F07FF0E1E69BE40E2
:100C00003043CF0802F1200646F8270010684F0055
:100C10000326BE40B0431E7906F003064F00BE40D7
:100C2000304310605E6806F08056B6F1805F7DD17B
:100C300000BF00260096404E366846F480463E4F80
:100C40003E603E46366806F48046009600BF00BF10
:100C50003A4E8F0856F827008E07370F0F26BE40F2
:100C6000B043374EB24202D1002624E05EE0354E5A
:100C7000B24201D101261EE0334EB24201D102261A
:100C800019E0324EB24201D1032614E0304EB24296
:100C900001D104260FE02F4EB24201D105260AE011
:100CA0002D4EB24201D1062605E02C4EB24201D1B2
:100CB000072600E008268F073F0FBE4030431F4E37
:100CC0008F0846F82700264E3068A0435E6806F479
:100CD0008036B6F5803F00D12043214E3060361D6E
:100CE0003068A0435E6806F40036B6F5003F00D1D8
:100CF00020431B4E361D3060361D3068A0435E68B1
:100D000006F48016B6F5801F00D12043144E083635
:100D10003060361D3068A0435E6806F40016B6F5F4
:100D2000001F00D120430E4E0C363060491C1029A4
:100D3000FFF420AFF8BD00004438024008380140FD
:100D4000000002400004024000080240000C024083
:100D5000001002400014024000180240001C024033
:100D6000003C014042690A408A4202D10A04826181
:100D700000E0816170470AB1816101E00B04836189
:100D80007047000001480068704700002C000020F8
:100D9000034800680349097808440149086070471E
:100DA0002C0000203400002010B50D48006840F4ED
:100DB00000700B4908600846006840F480600860D5
:100DC0000846006840F480700860032000F0AEF828
:100DD000002000F007F800F02BF8002010BD000004
:100DE000003C024070B504460E4800784FF47A711A
:100DF000B1FBF0F00C490968B1FBF0F5284600F0B2
:100E000029FF08B1012070BD102C07D20022214615
:100E1000501E00F04DF80548046001E00120F2E7A3
:100E20000020F0E7340000203800002030000020CF
:100E300008B500BF002000901448006840F48040CE
:100E4000124908600846006800F48040009000BF26
:100E500000BF00BF00200090081F006840F08050D5
:100E6000091F08600846006800F08050009000BF2D
:100E700000BF072000F05AF800221146052000F0BC
:100E800017F8052000F004F808BD000044380240BF
:100E900001460846002809DB00F01F0301229A40A2
:100EA00043099B0003F1E023C3F8002100BF704712
:100EB0002DE9F05F80460D461646002701F03CFD07
:100EC000074639462A46334601F00700C0F1070AB3
:100ED000BAF1040F02D94FF0040A01E0C0F1070A89
:100EE000D14600F1040ABAF1070F02D24FF0000A0E
:100EF00001E0A0F1030AD4464FF0010A0AFA09FA08
:100F0000AAF1010A0AEA020A0AFA0CFA4FF0010BE6
:100F10000BFA0CFBABF1010B0BEA030B4AEA0B04D7
:100F20002146404601F010FDBDE8F09F00BF00F0F3
:100F30000702064B19684FF6FF031940044B0B4399
:100F400043EA0221014B196000BF70470CED00E03D
:100F50000000FA0570B504460D460CB9012070BDBD
:100F60005848006800F00F00A84209D255490D709A
:100F70000846006800F00F00A84201D00120EEE70B
:100F8000207800F0020002281DD1207800F0040033
:100F9000042805D14C48006840F4E0504A490860F4
:100FA000207800F00800082805D14748006840F480
:100FB0006040454908604448006820F0F000A1689E
:100FC000084341490860207800F00100A8B3606838
:100FD000012807D13C4808380068C0F34040B8B940
:100FE0000120BCE76068022802D06068032807D1AE
:100FF000354808380068C0F3406048B90120AEE7C2
:10100000314808380068C0F3400008B90120A6E75D
:101010002D48006820F00300616808432A490860F1
:10102000FFF7B0FE064609E0FFF7ACFE801B41F279
:101030008831884202D9032091E707E022480068FE
:1010400000F00C006168B0EB810FEDD11D48006825
:1010500000F00F00A84209D91A490D70084600682F
:1010600000F00F00A84201D0012078E7207800F0BE
:101070000400042807D11448006820F4E050E16817
:10108000084311490860207800F00800082808D1BA
:101090000D48006820F46040216940EAC1000A4917
:1010A000086000F019F808490968C1F30311074AFC
:1010B000515CC8400649086006480068FFF792FE88
:1010C00000204CE7003C024008380240C82B0008D2
:1010D00038000020300000202DE9F04700240025D2
:1010E0000026A1462548006800F00C0020B1042825
:1010F00005D008283AD105E0DFF8849039E0DFF820
:10110000849036E01D48001F006800F03F041B4833
:10111000001F006800F4800078B11A481749091FC1
:101120000968C1F38811A0FB017001462246002323
:101130003846FFF747F805460EE011480F49091FEA
:101140000968C1F38811A0FB017001462246002303
:101150003846FFF737F805460848001F0068C0F317
:101160000140401C4600B5FBF6F902E0DFF81090A4
:1011700000BF00BF4846BDE8F087000008380240C5
:101180000024F40000127A00F8B504460CB90120DE
:10119000F8BD207800F00100002874D0F9480068FC
:1011A00000F00C0004280DD0F648006800F00C0098
:1011B000082813D1F348001F006800F48000B0F540
:1011C000800F0BD1EF4808380068C0F3404000287A
:1011D00059D06068002856D10120D9E700BF606867
:1011E000B0F5803F08D1E7480838006840F4803007
:1011F000E449083908601EE06068B0F5A02F0DD101
:10120000E0480838006840F48020DE49083908606A
:101210000846006840F4803008600CE0D94808387F
:10122000006820F48030D749083908600846006813
:1012300020F48020086000BF606890B1FFF7A2FD35
:10124000054606E0FFF79EFD401B642801D90320F8
:101250009EE7CC4808380068C0F340400028F1D031
:1012600011E0FFF78FFD054606E0FFF78BFD401B01
:10127000642801D903208BE7C24808380068C0F30E
:1012800040400028F1D1207800F0020002285FD110
:10129000BC48006800F00C0058B1BA48006800F083
:1012A0000C0008281CD1B748001F006800F480001B
:1012B000B0B9B44808380068C0F3400020B1E06815
:1012C000012801D0012063E7AE480838006820F00B
:1012D000F800216940EAC100AA490839086037E0EE
:1012E000E06800B30120A8490860FFF74BFD054600
:1012F00006E0FFF747FD401B022801D9032047E71E
:10130000A04808380068C0F340000028F1D09D488C
:101310000838006820F0F800216940EAC1009949C6
:101320000839086014E0002097490860FFF72AFD9B
:10133000054606E0FFF726FD401B022801D90320E1
:1013400026E7904808380068C0F340000028F1D133
:10135000207800F0080008282CD16069A8B101208D
:101360008A490860FFF70EFD054606E0FFF70AFD13
:10137000401B022801D903200AE782486C3000682C
:10138000C0F340000028F1D014E000207F4908603D
:10139000FFF7F8FC054606E0FFF7F4FC401B0228C7
:1013A00001D90320F4E677486C300068C0F34000B0
:1013B0000028F1D1207800F00400042870D1002723
:1013C00070483830006800F0805090B900BF0020AD
:1013D00000906C483830006840F0805069493831DE
:1013E00008600846006800F08050009000BF00BF11
:1013F00001276748006800F48070B0B9644800684D
:1014000040F4807062490860FFF7BCFC054606E0C6
:10141000FFF7B8FC401B022801D90320B8E65C485E
:10142000006800F480700028F2D000BFA068012896
:1014300008D154486830006840F0010051496831D3
:1014400008601DE0A06805280DD14E48683000688E
:1014500040F004004B49683108600846006840F0DD
:10146000010008600CE047486830006820F0010087
:101470004449683108600846006820F004000860AC
:1014800000BFA068A8B1FFF77DFC054609E0FFF7A3
:1014900079FC401B41F28831884202D9032077E66B
:1014A00026E0384868300068C0F340000028EED0DD
:1014B00013E0FFF767FC054608E0FFF763FC401BFD
:1014C00041F28831884201D9032061E62D48683015
:1014D0000068C0F340000028EFD1012F07D1294850
:1014E0003830006820F0805026493831086000BF4D
:1014F000A069002845D02348006800F00C000828A7
:101500005DD0A069022845D100201F490866FFF779
:1015100039FC054606E0FFF735FC401B022801D9DF
:10152000032035E6174808380068C0F340600028FB
:10153000F1D1D4E907010843616A40EA811101222F
:10154000A06AC2EB500041EA00412C20005D41EA54
:1015500000600C49091F086001200B490866FFF76D
:1015600011FC054606E0FFF70DFC401B022801D9DF
:1015700003200DE6034808380068C0F340600028E7
:10158000F1D03FE00838024000004742800E474259
:101590000070004000201C490866FFF7F3FB054679
:1015A00006E0FFF7EFFB401B022801D90320EFE51F
:1015B00016480068C0F340600028F2D122E0A0691C
:1015C000012800D1E4E51148001D066806F48001F9
:1015D000E069814214D106F03F01206A81420FD1B7
:1015E00047F6C0703040616A884209D106F4403144
:1015F000A06A814204D106F07061E06A814201D0A4
:101600000120C5E50020C3E5000047420038024044
:1016100010B504460CB9012010BD606A00B900BFC6
:101620000021A16294F8510028B9002084F85000EC
:10163000204600F033F8022084F85100206800684A
:1016400020F0400021680860D4E901010843E16806
:1016500008432169084361690843218B01F4007143
:101660000843E1690843216A0843A16A08432168E5
:1016700008600421A06901EA1040616A08432168FA
:1016800048602068C06920F400602168C8610020BB
:101690006065012084F851000020BDE710B586B0D8
:1016A0000446142101A8FEF7D7FD1B492068884293
:1016B0002FD100BF002000901848006840F48050EF
:1016C000164908600846006800F48050009000BF8A
:1016D00000BF00BF0020009010481438006840F0A0
:1016E00001000E49143908600846006800F0010046
:1016F000009000BF00BFE020019002200290002077
:101700000390032004900520059001A90448FFF7E9
:1017100029FA06B010BD00000030014044380240F4
:10172000000002402DE9F8430446884616461D464F
:101730004FF000096068B0F5827F0DD1A06858B9FC
:10174000042084F851003346424641462046009525
:1017500000F06BF9BDE8F88300BF94F85000012851
:1017600001D10220F6E7012084F8500000BFFFF706
:1017700009FB074694F85100012802D04FF00209F6
:1017800078E0B8F1000F00D016B94FF0010971E010
:10179000042084F8510000206065C4F83880A687D2
:1017A000E6872063A086E08620646064A068B0F5C8
:1017B000004F05D12068006820F48040216808604F
:1017C0002068006800F04000402805D020680068CC
:1017D00040F0400021680860E068F8B91AE020682D
:1017E000806800F0010050B12068007BA16B087098
:1017F000A06B401CA063E08F401EE0870AE0FFF76B
:10180000C1FAC01BA84201D3681C00B915B94FF03A
:1018100003092FE0E08F0028E1D11EE01AE02068E4
:10182000806800F0010050B12068C068A16B08809A
:10183000A06B801CA063E08F401EE0870AE0FFF7EA
:10184000A1FAC01BA84201D3681C00B915B94FF01A
:1018500003090FE0E08F0028E1D13A4629462046EF
:1018600000F0ADFE08B120206065606D08B14FF05A
:10187000010900BF012084F8510000BF002084F856
:10188000500000BF484665E72DE9F84F04468846FA
:1018900016461D464FF0000A00BF94F8500001287C
:1018A00002D10220BDE8F88F012084F8500000BF6B
:1018B000FFF768FA0746B14694F85100012802D0B4
:1018C0004FF0020AA7E0B8F1000F00D016B94FF0B0
:1018D000010AA0E0032084F8510000206065C4F8EC
:1018E0003080A686E686A063A087E08760642064D7
:1018F000A068B0F5004F05D12068006840F4804032
:10190000216808602068006800F04000402805D089
:101910002068006840F0400021680860E068B0F589
:10192000006F2FD1606810B1B9F1010F09D1206BA0
:1019300000882168C860206B801C2063E08E401EF8
:10194000E0861BE02068806800F0020002280AD1CF
:10195000206B00882168C860206B801C2063E08EAB
:10196000401EE0860AE0FFF70DFAC01BA84201D333
:10197000681C00B915B94FF0030A4CE0E08E00284E
:10198000E0D12EE0606810B1B9F1010F09D1206BF0
:10199000007821680873206B401C2063E08E401E95
:1019A000E0861BE02068806800F0020002280AD16F
:1019B000206B007821680873206B401C2063E08E48
:1019C000401EE0860AE0FFF7DDF9C01BA84201D304
:1019D000681C00B915B94FF0030A1CE0E08E00281E
:1019E000E0D13A462946204600F034FE08B12020D6
:1019F0006065A06850B900BF002000902068C068F2
:101A0000009020688068009000BF00BF606D08B142
:101A10004FF0010A00BF012084F8510000BF0020F0
:101A200084F8500000BF50463CE72DE9FF5F0446B4
:101A3000884691461D460E9E01200290002001908E
:101A400000BF94F85000012803D1022004B0BDE883
:101A5000F09F012084F8500000BFFFF793F907467C
:101A600094F851B060680390AA46BBF1010F0BD007
:101A70000398B0F5827F04D1A06810B9BBF1040FC0
:101A800002D002200190DBE0B8F1000F03D0B9F1E1
:101A9000000F00D015B901200190D1E094F8510059
:101AA000042802D0052084F8510000206065C4F8A5
:101AB0003890E587A587C4F83080E586A586206440
:101AC00060642068006800F04000402805D020686D
:101AD000006840F0400021680860E068B0F5006FE1
:101AE0004AD1606810B1BAF1010F09D1206B0088AA
:101AF0002168C860206B801C2063E08E401EE08659
:101B000033E02068806800F00200022810D1E08EE7
:101B100070B1029801280BD1206B00882168C86041
:101B2000206B801C2063E08E401EE0860020029027
:101B30002068806800F0010068B1E08F58B120682B
:101B4000C068A16B0880A06B801CA063E08F401E62
:101B5000E08701200290FFF715F9C01BB04204D3C3
:101B6000701C10B1032001906AE0E08E0028C8D1FB
:101B7000E08F0028C5D14AE0606810B1BAF1010FCA
:101B800009D1206B007821680873206B401C20630A
:101B9000E08E401EE08634E02068806800F002009D
:101BA000022810D1E08E70B1029801280BD1206B71
:101BB000007821680873206B401C2063E08E401E73
:101BC000E086002002902068806800F0010068B183
:101BD000E08F58B12068C068A16B0870A06B401CF2
:101BE000A063E08F401EE08701200290FFF7CAF853
:101BF000C01BB04201D3701C00B916B9032001907C
:101C00001EE0E08E0028C7D1E08F0028C4D13A46FC
:101C10003146204600F01EFD20B101200190202019
:101C200060650DE0A06850B900BF002000902068FA
:101C3000C068009020688068009000BF00BF00BFAF
:101C4000012084F8510000BF002084F8500000BF3C
:101C50000198FBE670B504462546681EB0F1807F0A
:101C600001D301200FE0681E4FF0E02148610F21F1
:101C70004FF0FF3000F068FE00204FF0E021886157
:101C800007200861002070BD7047704730B50246DC
:101C90000B4600BF92F83C00012801D1022030BD64
:101CA000012082F83C0000BF022082F83D0010684D
:101CB00044681068816824F0700418680443106850
:101CC0004460184D1068A8421BD01068B0F1804FD6
:101CD00017D0154D1068A84213D0144D1068A842B3
:101CE0000FD0134D1068A8420BD0124D1068A842B7
:101CF00007D0114D1068A84203D0104D1068A842BB
:101D000005D121F0800158680143106881600120ED
:101D100082F83D0000BF002082F83C0000BF00BFF9
:101D2000BDE7000000000140000400400008004042
:101D3000000C004000040140004001400018004039
:101D400010B504460CB9012010BD94F83D0028B927
:101D5000002084F83C00204600F00CF8022084F8B3
:101D60003D00211D206800F079FD012084F83D0030
:101D70000020E9E738B504460E492068884217D1AB
:101D800000BF002000900C48006840F010000A4995
:101D900008600846006800F01000009000BF00BF17
:101DA000002211463620FFF783F83620FFF770F83F
:101DB00038BD0000001000404038024001460220BB
:101DC00081F83D000868806800F00702062A05D007
:101DD0000868006840F001000B681860012081F875
:101DE0003D0000207047704710B504462068006928
:101DF000C0F34000D8B12068C068C0F34000B0B163
:101E00006FF0020021680861012020772068806956
:101E100000F0030018B12046FFF7E5FF05E020467B
:101E200000F0ADF8204600F0ABF8002020772068E5
:101E30000069C0F38000D8B12068C068C0F380009A
:101E4000B0B16FF00400216808610220207720689B
:101E5000806900F4407018B12046FFF7C4FF05E028
:101E6000204600F08CF8204600F08AF80020207709
:101E700020680069C0F3C000D8B12068C068C0F312
:101E8000C000B0B16FF0080021680861042020771D
:101E90002068C06900F0030018B12046FFF7A3FFD7
:101EA00005E0204600F06BF8204600F069F80020BD
:101EB000207720680069C0F30010D8B12068C0689E
:101EC000C0F30010B0B16FF0100021680861082065
:101ED00020772068C06900F4407018B12046FFF7F1
:101EE00082FF05E0204600F04AF8204600F048F85E
:101EF000002020772068006900F0010058B12068B8
:101F0000C06800F0010030B16FF001002168086185
:101F1000204600F036F820680069C0F3C01058B1C0
:101F20002068C068C0F3C01030B16FF08000216835
:101F300008612046FFF7A8FE20680069C0F3801002
:101F400058B12068C068C0F3801030B16FF0400015
:101F500021680861204600F015F820680069C0F388
:101F6000401058B12068C068C0F3401030B16FF025
:101F70002000216808612046FFF787FE10BD7047EA
:101F800070477047704700BFFEE73EB50446022227
:101F900002A9282000F038F99DF808009DF80910E2
:101FA00000EB012000B2ADF80000022202A92A20B5
:101FB00000F02AF99DF808009DF8091000EB0120B7
:101FC00000B2ADF80200022202A92C2000F01CF998
:101FD0009DF808009DF8091000EB012000B2ADF853
:101FE000040000982060BDF80400A0803EBD000001
:101FF00000B585B003A8FFF7C8FFBDF90C0000EEDF
:10200000100AB8EEC00A2648D0ED000A60EE200A99
:10201000244890ED001A9FED240A00EE810A23481F
:10202000D0ED000A30EE600A8DED000ABDF90E0019
:1020300000EE100AB8EEC00A1948D0ED000A60EEB2
:10204000200A1B4890ED001A9FED170A00EE810A46
:102050001848D0ED000A30EE600A8DED010ABDF996
:10206000100000EE100AB8EEC00A0D48D0ED000ACC
:1020700060EE200A104890ED001A9FED0B0A00EE6A
:10208000810A0E48D0ED000A30EE600A8DED020A9A
:102090009DED000ADDED010A9DED021A05B000BDBF
:1020A00000000020100000200000000004000020BC
:1020B0001400002008000020180000200C00002060
:1020C00038B505460C460020009058222946334872
:1020D000FEF7A9F8E07800F007009DF8001008432B
:1020E0000090207800F0F0009DF800100843009068
:1020F00001226946202000F0B5F800200090A07869
:1021000000F0C0009DF8001008430090607800F0D7
:1021100038009DF8001008430090012269462420F1
:1021200000F0A0F8207930B18820009001226946A3
:10213000232000F097F86078102815D003DC38B120
:10214000082823D10AE0182814D020281ED117E02F
:102150009FED130A134880ED000A17E09FED120A65
:10216000104880ED000A11E09FED100A0D4880ED47
:10217000000A0BE09FED0E0A0A4880ED000A05E018
:102180009FED0C0A074880ED000A00BF00BF012246
:1021900008210948FEF7EFFD38BD00003C00002093
:1021A0008FC2753D000000208FC2F53DEC51383ED6
:1021B0008FC2753E48E13A3F0010024038B50446F0
:1021C000FEF7E0FD054600BF01226946272000F02A
:1021D0001BF89DF8000000F0070000B109E09DF831
:1021E000000000F0070020B9FEF7CCFD401BA04224
:1021F000EAD300BF9DF8000000F0070008B10120FD
:1022000038BD0020FCE70000F8B504460D46164630
:1022100044F080008DF80000002208210F48FEF7EE
:10222000AAFD0A23012269460D48FFF72DFB0A2368
:10223000324669460A48FFF775FA01220821074825
:10224000FEF799FD002004E01DF800102954411C00
:10225000C8B206F003018142F6DCF8BD001002406E
:102260003C000020F8B504460D46164600940022B6
:1022700008210A48FEF77FFD0A2301226946084823
:10228000FFF702FB0A23324629460548FFF7FCFA0E
:10229000012208210148FEF76EFDF8BD0010024042
:1022A0003C00002030EE801AF0EE001A81EE212A68
:1022B000064880ED002A30EEC01ADFED051A81EEE7
:1022C000812A044880ED002A7047000004000020A5
:1022D0000000FA441000002030EE801AF0EE001AE0
:1022E00081EE212A064880ED002A30EEC01ADFED8B
:1022F000051A81EE812A044880ED002A704700000B
:10230000080000200000FA441400002030EE801A7B
:10231000F0EE001A81EE212A064880ED002A30EE08
:10232000C01ADFED051A81EE812A044880ED002AEB
:10233000704700000C0000200000FA441800002044
:1023400010B54FF400410848FEF70CFD6420FFF77C
:1023500035FF40B1FFF74CFE044880ED000AC0EDA8
:10236000010A80ED021A10BD000C0240B4010020E9
:102370001CB50020009001900A480B4908600846EF
:10238000FEF7F1F808B1FEF781F804200090002074
:102390000190002269460448FEF77DF808B1FEF777
:1023A00075F81CBD007400409400002008B500BF03
:1023B000002000900A48006840F4001008490860B6
:1023C0000846006800F40010009000BF00BF002223
:1023D00011461020FEF76CFD1020FEF759FD08BDD8
:1023E0003038024000B587B0142102A8FDF734FF51
:1023F00000BF002001904648006840F010004449AA
:1024000008600846006800F01000019000BF00BF9F
:1024100000BF002001900846006840F0800008607E
:102420000846006800F08000019000BF00BF00BFB8
:10243000002001900846006840F00100086008464E
:10244000006800F00100019000BF00BF00BF002045
:1024500001900846006840F00800086008460068DF
:1024600000F00800019000BF00BF002208212948A9
:10247000FEF781FC00224FF20E012748FEF77BFC9D
:10248000082002900120039000200490059002A9EA
:102490002048FEF767FB01200290204803900020AF
:1024A000049002A91E48FEF75DFB4FF470400290B5
:1024B0000120039000200490059002A91648FEF721
:1024C00051FB0E2002900120039004900020059003
:1024D00002A91148FEF746FB102002900F48039016
:1024E0000020049002A90C48FEF73CFB0022114694
:1024F0000620FEF7DDFC0620FEF7CAFC002211468E
:102500000A20FEF7D5FC0A20FEF7C2FC07B000BD8A
:102510003038024000100240000C02400000111050
:102520000000024010B50E480E4908604FF482705A
:10253000486000210B488160C160016141614FF436
:10254000007181611021C1610021016241628162DB
:102550000A21C162FFF75CF808B1FDF797FF10BDD3
:1025600000300140080100201CB5002000900190BF
:102570000E480F4908604F20486000210C488160D8
:1025800040F2E731C16000218161FFF7D9FB08B15A
:10259000FDF77CFF20200090002001906946044850
:1025A000FFF774FB08B1FDF771FF1CBD0010004080
:1025B0006001002000BFFEE7704770477047F8B524
:1025C00004460E4615466068B0F5827F0DD1A068BE
:1025D000B0F5004F03D0A068B0F5806F05D120683A
:1025E000006820F04000216808606068B0F5827FD4
:1025F0001FD1A068B0F5806F0DD033460022802136
:102600002046009500F05CF808B3606D40F02000B3
:1026100060650320F8BD3346002201212046009565
:1026200000F04EF898B1606D40F020006065032026
:10263000F0E73346002201212046009500F040F8E3
:1026400028B1606D40F0200060650320E2E70020C3
:10265000E0E700007CB504460D46164616480068C3
:102660001821B0FBF1F01549B0FBF1F04FF47A718D
:10267000484301906068B0F5827F0DD12B4600225F
:1026800080212046009600F01BF898B1606D40F064
:102690002000606503207CBD00BF019800B908E000
:1026A0000198401E019020688068C0F3C010002887
:1026B000F3D100BF0020EEE73800002040420F00B9
:1026C0002DE9F04104460E4617461D46DDF81880F8
:1026D0003EE0681CD8B3FEF755FBA0EB0800A8420B
:1026E00000D2A5BB2068406820F0E0002168486067
:1026F0006068B0F5827F0DD1A068B0F5004F03D0BF
:10270000A068B0F5806F05D12068006820F0400017
:1027100021680860A06AB0F5005F0DD100BF206895
:10272000006820F40050216808602068006840F4C8
:1027300000502168086000BF012084F8510000BFEC
:10274000002084F8500000BF0320BDE8F081FFE7BF
:10275000206880683040B04201D1012000E00020B4
:10276000B842B6D10020F0E7704710B5FEF710FB75
:1027700010BD000000B593B0302107A8FDF76CFD37
:10278000142102A8FDF768FD00BF00200190244835
:10279000006840F08050224908600846006800F058
:1027A0008050019000BF00BF00BF002001901D4875
:1027B000006840F480401B4908600846006800F447
:1027C0008040019000BF00BF0120079000040890E6
:1027D00002200D9041050E9104210F91A02110912E
:1027E000022111910721129107A8FEF7CDFC08B133
:1027F000FDF74CFE0F200290022003900020049071
:102800004FF4A05005904FF480500690052102A887
:10281000FEF7A0FB08B1FDF739FE13B000BD0000C4
:1028200040380240007000400548006840F47000E5
:10283000034908604FF00060014980390860704723
:1028400088ED00E010B50348FDF756FE0248FFF79B
:10285000CBFA10BD940000206001002010B5026882
:10286000294B98420ED0B0F1804F0BD0274B9842A5
:1028700008D0274B984205D0264B984202D0264BD1
:10288000984203D122F070024B681A431E4B9842C3
:1028900020D0B0F1804F1DD01C4B98421AD01C4B59
:1028A000984217D01B4B984214D01B4B984211D022
:1028B0001A4B98420ED01A4B98420BD0194B9842A3
:1028C00008D0194B984205D0184B984202D0184BAB
:1028D000984203D122F44072CB681A4322F080035D
:1028E0004C6943EA040202608B68C3620B6883622E
:1028F000054B984202D0084B984201D10B69036303
:102900000123436110BD00000000014000040040AD
:1029100000080040000C004000040140004001405D
:10292000004401400048014000180040001C0040E5
:102930000020004000BFFEE702480068C0F302200C
:10294000704700000CED00E010B5002804DB0A071A
:10295000130E054A135406E00A07140E034A00F04A
:102960000F031B1FD45410BD00E400E018ED00E07D
:1029700002E008C8121F08C1002AFAD17047704748
:10298000002001E001C1121F002AFBD170470000A6
:1029900010B54FF480510448FEF7E4F900220221FB
:1029A0000148FEF7E8F910BD000C024010B5012205
:1029B00004210248FEF7DFF910BD0000000C0240C0
:1029C00000B59FED210AB0EE402A2048D0ED010A63
:1029D000B0EE600A1E4B1F480A2102681E4800F034
:1029E000D3F8B0EE402A1B4800680A2803DB002019
:1029F0001849086004E017480068401C1549086041
:102A00009FED160AB4EEC02AF1EE10FA0ADD9FED32
:102A1000140AB4EEC02AF1EE10FA03D200201149D4
:102A2000087010E09FED100AB4EEC02AF1EE10FA23
:102A300009D29FED0E0AB4EEC02AF1EE10FA02DDC3
:102A400001200849087000BD00000000B40100200A
:102A50002400002028000020C001002000001644AF
:102A60000040744422000020000016C400007AC414
:102A700010B5002208210248FEF77DF910BD0000C4
:102A8000000C0240FEF790F9FFF774FEFFF7AAFC76
:102A9000FFF78CFCFFF746FDFFF76AFCFFF764FDCC
:102AA000FFF7E6FF1E48FFF789F9C0201D4988702F
:102AB000402008700720C870082048700020087166
:102AC0001948FFF7FDFADFED190A9FED190AFFF724
:102AD000E9FBDFED180A9FED180AFFF7FDFBDFEDBC
:102AE000170A9FED130AFFF711FCFFF75FFF16E0CF
:102AF000FFF726FCFFF764FF1148007810B10128AA
:102B000008D104E000F036F800F01CF806E0FFF70A
:102B10003FFF03E001200A49087000BF00BFE7E75C
:102B2000600100201C0000200801002000806F448C
:102B300000C073C40040744400007AC400C07B44E9
:102B40002200002008B54FF480410848FEF70AF93A
:102B50000020012341F6FF72014600900448FDF772
:102B600083FD08B1FDF792FC08BD0000000C024097
:102B70009400002010B5012202210248FEF7FBF864
:102B800010BD0000000C024010B5F0EE400A93EDBD
:102B9000000A00EB820494ED001A30EE410A30EE98
:102BA000200A83ED000A00EB8204C4ED000A93EDD5
:102BB000001A00EE101AF8EEC01A81EE210A10BDBC
:102BC00000061016000610160000000000000000AD
:102BD00001020304060708090000000001020304C3
:102BE000002C0008000000203C00000070290008B4
:102BF0003C2C00083C000020AC05000080290008A7
:102C00008FC2753D000000000000000000000000C1
:102C10000000803F0000803F0000803F0000000077
:102C200000000100000000000000000000000000A3
:0C2C300010000000010000000024F4006F
:040000050800018965
:00000001FF
