:020000040800F2
:1000000068060020190200082102000823020008E7
:10001000250200082702000829020008000000004D
:100020000000000000000000000000002B0200089B
:100030002D020008000000002F0200083102000815
:1000400033020008330200083302000833020008BC
:100050003302000833020008C50400083302000818
:10006000330200083302000833020008330200089C
:10007000330200083302000833020008330200088C
:10008000330200083302000833020008330200087C
:10009000330200083302000833020008330200086C
:1000A000330200083302000833020008330200085C
:1000B000330200083302000833020008330200084C
:1000C000330200083302000833020008330200083C
:1000D000330200083302000833020008330200082C
:1000E000330200083302000833020008330200081C
:1000F000330200083302000833020008330200080C
:1001000033020008330200083302000833020008FB
:1001100033020008330200083302000833020008EB
:1001200033020008330200083302000833020008DB
:1001300033020008330200083302000833020008CB
:1001400033020008330200083302000833020008BB
:1001500033020008330200083302000833020008AB
:10016000330200083302000833020008330200089B
:1001700033020008330200083302000800000000C8
:10018000330200083302000800F002F800F032F8F1
:100190000AA090E8000C82448344AAF10107DA45E2
:1001A00001D100F027F8AFF2090EBAE80F0013F002
:1001B000010F18BFFB1A43F0010318473C0A000067
:1001C0004C0A00000023002400250026103A28BF16
:1001D00078C1FBD8520728BF30C148BF0B607047B9
:1001E0001FB500F0FCFC0FBC00F014F80FB41FBDED
:1001F00010B510BD00F033F81146FFF7F1FF00F025
:1002000053FC00F051F803B4FFF7F2FF03BC00F019
:1002100059F8000000F06DB80948804709480047C8
:10022000FEE7FEE7FEE7FEE7FEE7FEE7FEE7FEE7A6
:10023000FEE7FEE704480549054A064B7047000003
:10024000DD0400088901000868000020680600201D
:1002500068020020680200207047704770477546AA
:1002600000F02CF8AE4605006946534620F0070022
:10027000854618B020B5FFF7DDFFBDE820404FF000
:1002800000064FF000074FF000084FF0000BAC469F
:10029000ACE8C009ACE8C009ACE8C009ACE8C009EA
:1002A00021F007018D46704710B50446AFF300807A
:1002B0002046BDE81040FFF7A6BF00000048704789
:1002C0000000002001491820ABBEFEE72600020016
:1002D0000246C91C21F00301D2E900031B1A8B421C
:1002E00001D2002070470144C91D21F007011160AF
:1002F00070472DE9F34F83B000274FF48074BA465E
:1003000003A821468DF80070FFF7E2FF5FEA0008BE
:1003100001D100F083F82146404600F070F8060055
:1003200009D04FF0010B4546C14616F8014B8FB17D
:100330005C2C16D01CE008F108004146C8F800000B
:100340000020C8F80400D8F800402070012005B053
:10035000BDE8F08F222C01D0272C0FD12746BA46BA
:100360002CE03078222807D05C2805D0272803D03D
:10037000BC4203D1002721E0761C04464CB12FB9C2
:10038000202C06D0A4F10900042802D905F8014B5D
:10039000CBE74D4502D1BAF1000F0FD05246494686
:1003A000002005F8010B6846AFF300809DF80000BF
:1003B00070B14D464FF0000A0BF1010B002CB4D187
:1003C0004FEA8B0103A8FFF783FF040002D004E08B
:1003D000A946EFE7002000F021F800204246C4F8CB
:1003E000008005E012F8011B11B9401C44F82020E0
:1003F000AA42F7D3002144F820102146A7E71CB5F4
:100400000446CDE9000169461520ABBE08B10020C5
:100410001CBD20461CBD70477047704710B500F0EA
:1004200009F8BDE81040AFF30080002801D0FFF7C5
:1004300049BF704710B5012805D0002103A000F086
:1004400021F8012010BD09A1F8E7000053494752E7
:10045000544D454D3A204F7574206F662068656194
:1004600070206D656D6F7279000000003A2048655C
:100470006170206D656D6F727920636F7272757037
:100480007465640070B505460C460A2000E06D1CDA
:1004900000F011F835B128780028F8D102E0641C8A
:1004A00000F009F814B120780028F8D1BDE87040B8
:1004B0000A20AFF3008008B569468DF800000320DC
:1004C000ABBE08BD80B5002000F028F840F2600007
:1004D000C2F200000121017080BD00004EF688507C
:1004E000CEF20000016841F4700101604EF6085040
:1004F000CEF200004FF0006101607047002848BF55
:10050000704700F01F01012202FA01F14EF20012C1
:100510004009CEF2000242F82010704743F6144220
:10052000C4F201020121136801FA00F018431060BF
:100530007047000002290FD001291CD0002918BFE4
:10054000704743F60842C4F201020121136801FA20
:1005500000F018431060704743F60842C4F20102ED
:100560000121136801FA00F043EA000111605168AB
:1005700008435060704743F60842C4F2010201216B
:10058000536801FA00F018435060704780B543F695
:100590004401C4F202010A68069B42F48042DDE98C
:1005A00004CE0A6000210F2BC4F2020123D188423D
:1005B00011D040F60041C4F2020188420BD040F64F
:1005C0000001C4F20201884205D040F20041C4F2A9
:1005D000020188423FD143F60802C4F201024FEA09
:1005E0008E000F2152F82C3001FA00F023EA0000AF
:1005F00042F82C0080BD884212D040F60041C4F27F
:10060000020188421AD040F60001C4F20201884279
:1006100006D040F20041C4F20201884218BF80BDFA
:1006200043F60801C4F201014FEA8E0051F82C2074
:1006300003FA00F0104341F82C0080BD43F6080196
:10064000C4F201014FEA8E0051F82C2003FA00F0A9
:10065000104341F82C0080BDDDE902C30021C4F243
:100660000201F3B188423CD040F60042C4F20202DB
:10067000904248D040F60002C4F2020290424CD0B0
:1006800040F20042C4F20202904218BF70474FEAA3
:100690004C00D1F8002403FA00F01043C1F8000424
:1006A0007047884225D040F60043C4F202039842C6
:1006B0003DD040F60003C4F20203984243D040F21A
:1006C0000043C4F20203984226D14FEA4C001122A3
:1006D000D1F8003402FA00F023EA0000C1F8000467
:1006E00070474FEA4C000A6803FA00F010430860B4
:1006F00070474FEA4C0011220B6802FA00F023EA1F
:100700000000086070474FEA4C00D1F8002C03FA53
:1007100000F01043C1F8000C70474FEA4C00D1F8CC
:10072000002803FA00F01043C1F8000870474FEAB0
:100730004C001122D1F8003C02FA00F023EA00003C
:10074000C1F8000C70474FEA4C001122D1F8003874
:1007500002FA00F023EA0000C1F800087047000028
:10076000DDE902C20C23C4F20203112AA3F10C0139
:1007700021D1884240D040F60041C4F202018842B3
:100780004CD040F60001C4F20201884256D040F23B
:100790000041C4F2020188426DD140F20C42C4F221
:1007A00002024FEA4C001121136801FA00F023EA1B
:1007B000000010607047884228D040F60041C4F223
:1007C000020188424AD040F60001C4F20201884288
:1007D00052D040F20041C4F20201884218BF704773
:1007E00040F20C41C4F202014FEA4C000B6802FADD
:1007F00000F01843086070474FEA4C0011211A6856
:1008000001FA00F022EA0000186070474FEA4C003D
:10081000196802FA00F008431860704740F20C4271
:10082000C4F202024FEA4C001121D2F8003801FA5A
:1008300000F023EA0000C2F80008704740F20C42C2
:10084000C4F202024FEA4C001121D2F8003401FA3E
:1008500000F023EA0000C2F80004704740F20C41A7
:10086000C4F202014FEA4C00D1F8003802FA00F05D
:100870001843C1F80008704740F20C41C4F202016D
:100880004FEA4C00D1F8003402FA00F01843C1F8E6
:1008900000047047DDE902C30821C4F20201A1F19E
:1008A0000802F3B190423CD040F60042C4F202028A
:1008B000904243D040F60002C4F2020290424BD074
:1008C00040F20042C4F20202904218BF70474FEA61
:1008D0004C00D1F8002403FA00F01043C1F80004E2
:1008E0007047904220D040F60042C4F2020290428B
:1008F0003ED040F60002C4F20202904248D040F2DC
:100900000042C4F20202904225D14FEA4C0011226B
:10091000D1F8003402FA00F023EA0000C1F8000424
:1009200070474FEA4C001DE04FEA4C0011220B6863
:1009300002FA00F023EA00000860704740F6080160
:10094000C4F202014FEA4C00D1F8002403FA00F08F
:100950001043C1F80004704740F608014FEA4C000C
:10096000C4F202010A6803FA00F0104308607047FD
:1009700040F60802C4F202024FEA4C001121D2F8FC
:10098000003401FA00F023EA0000C2F800047047C6
:1009900040F60802C4F202024FEA4C00112113682B
:1009A00001FA00F023EA000010607047DDE902213F
:1009B000012901FA02F1426814BF114322EA010140
:1009C0004160704782B0019000200090FFE70098DE
:1009D0000199884205DAFFE7FFE7009801300090AF
:1009E000F5E702B07047000080B543F60043C4F25B
:1009F00001034FF0010C1A680CFA00F01043186064
:100A00000846FFF77BFD80BD2DE9F04385B0064623
:100A100000F13E4000F1FF70DDE90C984FEAB02094
:100A20001C46154603280F4609D81BA151F8200083
:100A300043F63001C4F202010A68104308603046F0
:100A400039462A462346CDE9009802950397FFF7D9
:100A500003FE304639462A462346CDE900980295E2
:100A60000394FFF7A3FF304639462A462346CDE9D3
:100A700000980295CDF80C90FFF70CFF30463946F0
:100A80002A462346CDE900980295CDF80C80FFF761
:100A900067FE05B0BDE8F083010000000200000021
:100AA00004000000080000002DE9F04198B000208B
:100AB000179040F60041C4F202010B9101210C9104
:100AC0000F220D92022310930F910E91DDF82CC08E
:100AD000DDF830E00D9C0E9D0F9E109FE846C8F893
:100AE0000470C8F80060099060460891714607924A
:100AF000224606932B46FFF787FF0020C4F2020030
:100B000011900698129009991391089A15921492CF
:100B1000169011981299139A149BDDF854C0DDF8C1
:100B200058E06C46C4F804E0C4F800C0FFF76CFF5E
:100B300007980A9011981299139A149BDDF854C0E3
:100B4000DDF858E00A9C6D462C61099CEC60AC60B5
:100B5000C5F804E0C5F800C0FFF718FD099806992C
:100B6000FFF7E8FC06210998FFF73EFFFFE742F296
:100B70001070FFF727FF40F26000C2F2000000781B
:100B8000C00700280ED0FFE740F26000C2F200006C
:100B9000002101700F2000F017F842F21070FFF7EB
:100BA00011FF06E00F2000F005F80A20FFF70AFF0A
:100BB000FFE7DCE71030012101FA00F040F61841B0
:100BC000C4F202010860704740F61842C4F2020203
:100BD0000121136801FA00F0184310607047F1EE2C
:100BE000100A4FF6FF71C0F2C03120EA010040F058
:100BF0004070E1EE100A7047080C00080000002069
:080C000068060000C4010008B1
:0400000508000219D4
:00000001FF
