:020000040800F2
:10000000600600200D020008150200081702000813
:10001000190200081B0200081D0200080000000071
:100020000000000000000000000000001F020008A7
:100030002102000800000000230200082502000839
:1000400027020008270200082702000827020008EC
:1000500027020008270200082702000827020008DC
:1000600027020008270200082702000827020008CC
:1000700027020008270200082702000827020008BC
:1000800027020008270200082702000827020008AC
:10009000270200082702000827020008270200089C
:1000A000270200082702000827020008270200088C
:1000B000270200082702000827020008270200087C
:1000C000270200082702000827020008270200086C
:1000D000270200082702000827020008270200085C
:1000E000270200082702000827020008270200084C
:1000F000270200082702000827020008270200083C
:10010000270200082702000827020008270200082B
:10011000270200082702000827020008270200081B
:10012000270200082702000827020008270200080B
:1001300027020008270200082702000827020008FB
:1001400027020008270200082702000827020008EB
:1001500027020008270200082702000827020008DB
:1001600027020008270200082702000827020008CB
:1001700027020008270200082702000800000000EC
:10018000270200082702000800F002F800F02EF80D
:100190000AA090E8000C82448344AAF10107DA45E2
:1001A00001D100F023F8AFF2090EBAE80F0013F006
:1001B000010F18BFFB1A43F0010318472C0400007D
:1001C0003C0400000023002400250026103A28BF2C
:1001D00078C1FBD8520728BF30C148BF0B607047B9
:1001E0001FB500F0F4F91FBD10B510BD00F031F8D7
:1001F0001146FFF7F5FF00F0D1F900F04FF803B416
:10020000FFF7F2FF03BC00F057F8000009488047F1
:1002100009480047FEE7FEE7FEE7FEE7FEE7FEE7E8
:10022000FEE7FEE7FEE7FEE704480549054A064B00
:1002300070470000C9020008890100086000002022
:1002400060060020600200206002002070477047B6
:100250007047754600F02CF8AE46050069465346D7
:1002600020F00700854618B020B5FFF7DDFFBDE898
:1002700020404FF000064FF000074FF000084FF00D
:10028000000BAC46ACE8C009ACE8C009ACE8C0095A
:10029000ACE8C00921F007018D46704710B504464F
:1002A000AFF300802046BDE81040FFF7A8BF000074
:1002B000004870470000002001491820ABBEFEE74F
:1002C00026000200704700004EF68850CEF2000073
:1002D000016841F4700101604FF0006140F8801C3A
:1002E00070470000DDE901C2002A40F20002C4F2BA
:1002F00002021ED090423CD040F60043C4F20203FA
:10030000984248D040F60003C4F2020398424CD011
:1003100040F20043C4F20203984218BF70474FEA0C
:100320004C00D2F8003401FA00F01843C2F800047F
:100330007047904225D040F60041C4F20201884245
:100340003DD040F60001C4F20201884243D040F2A1
:100350000041C4F20201884226D14FEA4C0011212B
:10036000D2F8003401FA00F023EA0000C2F80004D9
:1003700070474FEA4C00136801FA00F01843106010
:1003800070474FEA4C001121136801FA00F023EA8C
:100390000000106070474FEA4C00D2F8003C01FAB0
:1003A00000F01843C2F8000C70474FEA4C00D2F836
:1003B000003801FA00F01843C2F8000870474FEA0D
:1003C0004C001121D2F8003C01FA00F023EA0000B1
:1003D000C2F8000C70474FEA4C001121D2F80038E7
:1003E00001FA00F023EA0000C2F80008704700009C
:1003F000DDE901230821C4F20201002BA1F1080369
:100400001FD0DDF800C098423AD040F60043C4F255
:10041000020398423FD040F60003C4F20203984220
:1004200046D040F20043C4F20203984218BF70471E
:100430005000D1F800240CFA00F01043C1F8000479
:10044000704798421ED040F60043C4F2020398421F
:1004500039D040F60003C4F20203984242D040F281
:100460000043C4F20203984221D150001122D1F876
:10047000003402FA00F023EA0000C1F800047047DB
:1004800050001AE0500011220B6802FA00F023EA33
:1004900000000860704740F60801C4F202015000F5
:1004A000D1F800240CFA00F01043C1F800047047A2
:1004B00040F608015000C4F202010A680CFA00F08C
:1004C000104308607047500040F60802C4F2020270
:1004D0001121D2F8003401FA00F023EA0000C2F83A
:1004E00000047047500040F60802C4F202021121D5
:1004F000136801FA00F023EA000010607047000062
:10050000DDE90121012901FA02F1426814BF11431A
:1005100022EA0101416070472DE9F04184B00646AE
:1005200000F13E4000F1FF70DDF828804FEAB02076
:100530001C46154603280F4609D814A151F820007F
:1005400043F63001C4F202010A68104308603046E5
:1005500039462A462346CDE900850297FFF7C2FEB9
:10056000304639462A462346CDE900850294FFF7F6
:10057000C7FF304639462A462346CDE90085CDF8E7
:100580000880FFF735FF04B0BDE8F08101000000EE
:1005900002000000040000000800000082B040F6E5
:1005A000004040F618444FF0010CC4F20200012153
:1005B0000F220123C4F20204CDF800C0FFF7ACFF04
:1005C0004FF400404FF0004120602160FCE7F1EE65
:1005D000100A4FF6FF71C0F2C03120EA010040F06E
:1005E0004070E1EE100A7047F80500080000002096
:0805F00060060000C4010008D0
:040000050800020DE0
:00000001FF
